{
  "contractName": "HitAndSunk",
  "abi": [
    {
      "anonymous": false,
      "inputs": [
        {
          "indexed": false,
          "internalType": "uint256",
          "name": "gaID",
          "type": "uint256"
        },
        {
          "indexed": false,
          "internalType": "uint256",
          "name": "player",
          "type": "uint256"
        }
      ],
      "name": "abandonment_request",
      "type": "event"
    },
    {
      "anonymous": false,
      "inputs": [
        {
          "indexed": false,
          "internalType": "uint256",
          "name": "amount",
          "type": "uint256"
        },
        {
          "indexed": false,
          "internalType": "uint256",
          "name": "gaID",
          "type": "uint256"
        }
      ],
      "name": "amountToPay",
      "type": "event"
    },
    {
      "anonymous": false,
      "inputs": [
        {
          "indexed": false,
          "internalType": "uint256",
          "name": "player",
          "type": "uint256"
        },
        {
          "indexed": false,
          "internalType": "uint256",
          "name": "cell",
          "type": "uint256"
        },
        {
          "indexed": false,
          "internalType": "uint256",
          "name": "gaID",
          "type": "uint256"
        }
      ],
      "name": "cellVerified",
      "type": "event"
    },
    {
      "anonymous": false,
      "inputs": [
        {
          "indexed": false,
          "internalType": "uint256",
          "name": "player",
          "type": "uint256"
        },
        {
          "indexed": false,
          "internalType": "uint256",
          "name": "new_reward",
          "type": "uint256"
        },
        {
          "indexed": false,
          "internalType": "uint256",
          "name": "gaID",
          "type": "uint256"
        }
      ],
      "name": "changeReward",
      "type": "event"
    },
    {
      "anonymous": false,
      "inputs": [
        {
          "indexed": false,
          "internalType": "uint256",
          "name": "new_state",
          "type": "uint256"
        },
        {
          "indexed": false,
          "internalType": "uint256",
          "name": "gaID",
          "type": "uint256"
        }
      ],
      "name": "changeState",
      "type": "event"
    },
    {
      "anonymous": false,
      "inputs": [
        {
          "indexed": false,
          "internalType": "uint256",
          "name": "player",
          "type": "uint256"
        },
        {
          "indexed": false,
          "internalType": "uint256",
          "name": "cell",
          "type": "uint256"
        },
        {
          "indexed": false,
          "internalType": "uint256",
          "name": "gaID",
          "type": "uint256"
        }
      ],
      "name": "gotWater",
      "type": "event"
    },
    {
      "anonymous": false,
      "inputs": [
        {
          "indexed": false,
          "internalType": "uint256",
          "name": "player",
          "type": "uint256"
        },
        {
          "indexed": false,
          "internalType": "uint256",
          "name": "cell",
          "type": "uint256"
        },
        {
          "indexed": false,
          "internalType": "uint256",
          "name": "gaID",
          "type": "uint256"
        }
      ],
      "name": "hitShip",
      "type": "event"
    },
    {
      "anonymous": false,
      "inputs": [
        {
          "indexed": false,
          "internalType": "uint256",
          "name": "player",
          "type": "uint256"
        },
        {
          "indexed": false,
          "internalType": "uint256",
          "name": "cell",
          "type": "uint256"
        },
        {
          "indexed": false,
          "internalType": "uint256",
          "name": "gaID",
          "type": "uint256"
        }
      ],
      "name": "hitTried",
      "type": "event"
    },
    {
      "anonymous": false,
      "inputs": [
        {
          "indexed": false,
          "internalType": "uint256",
          "name": "winner_player",
          "type": "uint256"
        },
        {
          "indexed": false,
          "internalType": "uint256",
          "name": "gaID",
          "type": "uint256"
        }
      ],
      "name": "matchWinner",
      "type": "event"
    },
    {
      "anonymous": false,
      "inputs": [
        {
          "indexed": false,
          "internalType": "uint256",
          "name": "game_ID",
          "type": "uint256"
        },
        {
          "indexed": false,
          "internalType": "uint256",
          "name": "state_ID",
          "type": "uint256"
        },
        {
          "indexed": false,
          "internalType": "address",
          "name": "player",
          "type": "address"
        }
      ],
      "name": "newGameInfo",
      "type": "event"
    },
    {
      "anonymous": false,
      "inputs": [
        {
          "indexed": false,
          "internalType": "uint256",
          "name": "player",
          "type": "uint256"
        },
        {
          "indexed": false,
          "internalType": "uint256",
          "name": "cell",
          "type": "uint256"
        },
        {
          "indexed": false,
          "internalType": "uint256",
          "name": "direction",
          "type": "uint256"
        },
        {
          "indexed": false,
          "internalType": "uint256",
          "name": "dimension",
          "type": "uint256"
        },
        {
          "indexed": false,
          "internalType": "uint256",
          "name": "gaID",
          "type": "uint256"
        }
      ],
      "name": "sunkShip",
      "type": "event"
    },
    {
      "anonymous": false,
      "inputs": [
        {
          "indexed": false,
          "internalType": "uint256",
          "name": "player",
          "type": "uint256"
        },
        {
          "indexed": false,
          "internalType": "uint256",
          "name": "number_sunk",
          "type": "uint256"
        },
        {
          "indexed": false,
          "internalType": "uint256",
          "name": "gaID",
          "type": "uint256"
        }
      ],
      "name": "sunkVerified",
      "type": "event"
    },
    {
      "inputs": [],
      "name": "balance",
      "outputs": [
        {
          "internalType": "uint256",
          "name": "",
          "type": "uint256"
        }
      ],
      "stateMutability": "view",
      "type": "function",
      "constant": true
    },
    {
      "inputs": [
        {
          "internalType": "uint256",
          "name": "",
          "type": "uint256"
        }
      ],
      "name": "game_matrix",
      "outputs": [
        {
          "internalType": "uint16",
          "name": "",
          "type": "uint16"
        }
      ],
      "stateMutability": "view",
      "type": "function",
      "constant": true
    },
    {
      "inputs": [
        {
          "internalType": "uint256",
          "name": "",
          "type": "uint256"
        }
      ],
      "name": "last_inactivity_request",
      "outputs": [
        {
          "internalType": "uint256",
          "name": "",
          "type": "uint256"
        }
      ],
      "stateMutability": "view",
      "type": "function",
      "constant": true
    },
    {
      "inputs": [
        {
          "internalType": "uint256",
          "name": "",
          "type": "uint256"
        }
      ],
      "name": "merkle_root1",
      "outputs": [
        {
          "internalType": "bytes32",
          "name": "",
          "type": "bytes32"
        }
      ],
      "stateMutability": "view",
      "type": "function",
      "constant": true
    },
    {
      "inputs": [
        {
          "internalType": "uint256",
          "name": "",
          "type": "uint256"
        }
      ],
      "name": "merkle_root2",
      "outputs": [
        {
          "internalType": "bytes32",
          "name": "",
          "type": "bytes32"
        }
      ],
      "stateMutability": "view",
      "type": "function",
      "constant": true
    },
    {
      "inputs": [
        {
          "internalType": "uint256",
          "name": "",
          "type": "uint256"
        }
      ],
      "name": "player1",
      "outputs": [
        {
          "internalType": "address",
          "name": "",
          "type": "address"
        }
      ],
      "stateMutability": "view",
      "type": "function",
      "constant": true
    },
    {
      "inputs": [
        {
          "internalType": "uint256",
          "name": "",
          "type": "uint256"
        }
      ],
      "name": "player2",
      "outputs": [
        {
          "internalType": "address",
          "name": "",
          "type": "address"
        }
      ],
      "stateMutability": "view",
      "type": "function",
      "constant": true
    },
    {
      "inputs": [
        {
          "internalType": "uint256",
          "name": "",
          "type": "uint256"
        }
      ],
      "name": "reward",
      "outputs": [
        {
          "internalType": "uint256",
          "name": "",
          "type": "uint256"
        }
      ],
      "stateMutability": "view",
      "type": "function",
      "constant": true
    },
    {
      "inputs": [
        {
          "internalType": "uint256",
          "name": "",
          "type": "uint256"
        }
      ],
      "name": "state",
      "outputs": [
        {
          "internalType": "uint256",
          "name": "",
          "type": "uint256"
        }
      ],
      "stateMutability": "view",
      "type": "function",
      "constant": true
    },
    {
      "inputs": [
        {
          "internalType": "uint256",
          "name": "",
          "type": "uint256"
        }
      ],
      "name": "sunk_1",
      "outputs": [
        {
          "internalType": "bool",
          "name": "",
          "type": "bool"
        }
      ],
      "stateMutability": "view",
      "type": "function",
      "constant": true
    },
    {
      "inputs": [
        {
          "internalType": "uint256",
          "name": "",
          "type": "uint256"
        }
      ],
      "name": "sunk_2",
      "outputs": [
        {
          "internalType": "bool",
          "name": "",
          "type": "bool"
        }
      ],
      "stateMutability": "view",
      "type": "function",
      "constant": true
    },
    {
      "inputs": [
        {
          "internalType": "uint256",
          "name": "",
          "type": "uint256"
        }
      ],
      "name": "sunk_3",
      "outputs": [
        {
          "internalType": "bool",
          "name": "",
          "type": "bool"
        }
      ],
      "stateMutability": "view",
      "type": "function",
      "constant": true
    },
    {
      "inputs": [
        {
          "internalType": "uint256",
          "name": "",
          "type": "uint256"
        }
      ],
      "name": "sunk_4",
      "outputs": [
        {
          "internalType": "bool",
          "name": "",
          "type": "bool"
        }
      ],
      "stateMutability": "view",
      "type": "function",
      "constant": true
    },
    {
      "inputs": [
        {
          "internalType": "uint256",
          "name": "",
          "type": "uint256"
        }
      ],
      "name": "sunk_5",
      "outputs": [
        {
          "internalType": "bool",
          "name": "",
          "type": "bool"
        }
      ],
      "stateMutability": "view",
      "type": "function",
      "constant": true
    },
    {
      "inputs": [
        {
          "internalType": "uint256",
          "name": "",
          "type": "uint256"
        }
      ],
      "name": "winner",
      "outputs": [
        {
          "internalType": "address payable",
          "name": "",
          "type": "address"
        }
      ],
      "stateMutability": "view",
      "type": "function",
      "constant": true
    },
    {
      "inputs": [],
      "name": "new_game",
      "outputs": [
        {
          "internalType": "uint256",
          "name": "game_ID",
          "type": "uint256"
        },
        {
          "internalType": "uint256",
          "name": "state_ID",
          "type": "uint256"
        }
      ],
      "stateMutability": "nonpayable",
      "type": "function"
    },
    {
      "inputs": [],
      "name": "new_game_with_friend",
      "outputs": [
        {
          "internalType": "uint256",
          "name": "game_ID",
          "type": "uint256"
        }
      ],
      "stateMutability": "nonpayable",
      "type": "function"
    },
    {
      "inputs": [
        {
          "internalType": "uint256",
          "name": "game_ID",
          "type": "uint256"
        }
      ],
      "name": "join_friend",
      "outputs": [
        {
          "internalType": "bool",
          "name": "result",
          "type": "bool"
        }
      ],
      "stateMutability": "nonpayable",
      "type": "function"
    },
    {
      "inputs": [
        {
          "internalType": "uint256",
          "name": "reward_value",
          "type": "uint256"
        },
        {
          "internalType": "uint256",
          "name": "player",
          "type": "uint256"
        },
        {
          "internalType": "uint256",
          "name": "game_ID",
          "type": "uint256"
        }
      ],
      "name": "set_reward",
      "outputs": [
        {
          "internalType": "bool",
          "name": "result",
          "type": "bool"
        }
      ],
      "stateMutability": "nonpayable",
      "type": "function"
    },
    {
      "inputs": [
        {
          "internalType": "uint256",
          "name": "player",
          "type": "uint256"
        },
        {
          "internalType": "uint256",
          "name": "game_ID",
          "type": "uint256"
        }
      ],
      "name": "send_transaction",
      "outputs": [
        {
          "internalType": "bool",
          "name": "result",
          "type": "bool"
        }
      ],
      "stateMutability": "payable",
      "type": "function",
      "payable": true
    },
    {
      "inputs": [
        {
          "internalType": "uint256",
          "name": "player",
          "type": "uint256"
        },
        {
          "internalType": "uint256",
          "name": "game_ID",
          "type": "uint256"
        },
        {
          "internalType": "bytes32",
          "name": "merkle_root",
          "type": "bytes32"
        }
      ],
      "name": "commit_disposition",
      "outputs": [
        {
          "internalType": "bool",
          "name": "result",
          "type": "bool"
        }
      ],
      "stateMutability": "nonpayable",
      "type": "function"
    },
    {
      "inputs": [
        {
          "internalType": "uint256",
          "name": "player",
          "type": "uint256"
        },
        {
          "internalType": "uint256",
          "name": "cell",
          "type": "uint256"
        },
        {
          "internalType": "uint256",
          "name": "game_ID",
          "type": "uint256"
        }
      ],
      "name": "try_hit",
      "outputs": [
        {
          "internalType": "bool",
          "name": "result",
          "type": "bool"
        }
      ],
      "stateMutability": "nonpayable",
      "type": "function"
    },
    {
      "inputs": [
        {
          "internalType": "bytes32[]",
          "name": "proof",
          "type": "bytes32[]"
        },
        {
          "internalType": "uint8",
          "name": "seed",
          "type": "uint8"
        },
        {
          "internalType": "uint256",
          "name": "player",
          "type": "uint256"
        },
        {
          "internalType": "uint256",
          "name": "cell",
          "type": "uint256"
        },
        {
          "internalType": "uint256",
          "name": "game_ID",
          "type": "uint256"
        }
      ],
      "name": "outcome_water",
      "outputs": [
        {
          "internalType": "bool",
          "name": "result",
          "type": "bool"
        }
      ],
      "stateMutability": "nonpayable",
      "type": "function"
    },
    {
      "inputs": [
        {
          "internalType": "bytes32[]",
          "name": "proof",
          "type": "bytes32[]"
        },
        {
          "internalType": "uint8",
          "name": "seed",
          "type": "uint8"
        },
        {
          "internalType": "uint256",
          "name": "player",
          "type": "uint256"
        },
        {
          "internalType": "uint256",
          "name": "cell",
          "type": "uint256"
        },
        {
          "internalType": "uint256",
          "name": "game_ID",
          "type": "uint256"
        }
      ],
      "name": "outcome_hit",
      "outputs": [
        {
          "internalType": "bool",
          "name": "result",
          "type": "bool"
        }
      ],
      "stateMutability": "nonpayable",
      "type": "function"
    },
    {
      "inputs": [
        {
          "internalType": "bytes32[]",
          "name": "proof",
          "type": "bytes32[]"
        },
        {
          "internalType": "uint8",
          "name": "seed",
          "type": "uint8"
        },
        {
          "internalType": "uint256",
          "name": "player",
          "type": "uint256"
        },
        {
          "internalType": "uint256",
          "name": "cell",
          "type": "uint256"
        },
        {
          "internalType": "uint256",
          "name": "dimension",
          "type": "uint256"
        },
        {
          "internalType": "uint256",
          "name": "direction",
          "type": "uint256"
        },
        {
          "internalType": "uint256",
          "name": "game_ID",
          "type": "uint256"
        }
      ],
      "name": "outcome_sunk",
      "outputs": [
        {
          "internalType": "bool",
          "name": "result",
          "type": "bool"
        }
      ],
      "stateMutability": "nonpayable",
      "type": "function"
    },
    {
      "inputs": [
        {
          "internalType": "uint256",
          "name": "game_ID",
          "type": "uint256"
        },
        {
          "internalType": "uint256",
          "name": "player",
          "type": "uint256"
        }
      ],
      "name": "adversary_quit",
      "outputs": [
        {
          "internalType": "uint256",
          "name": "result",
          "type": "uint256"
        }
      ],
      "stateMutability": "nonpayable",
      "type": "function"
    },
    {
      "inputs": [
        {
          "internalType": "bytes32[]",
          "name": "proof",
          "type": "bytes32[]"
        },
        {
          "internalType": "uint8",
          "name": "seed",
          "type": "uint8"
        },
        {
          "internalType": "uint256",
          "name": "player",
          "type": "uint256"
        },
        {
          "internalType": "uint256",
          "name": "cell",
          "type": "uint256"
        },
        {
          "internalType": "uint256",
          "name": "game_ID",
          "type": "uint256"
        }
      ],
      "name": "verify_cell",
      "outputs": [
        {
          "internalType": "bool",
          "name": "result",
          "type": "bool"
        }
      ],
      "stateMutability": "nonpayable",
      "type": "function"
    },
    {
      "inputs": [
        {
          "internalType": "uint256",
          "name": "player",
          "type": "uint256"
        },
        {
          "internalType": "uint256",
          "name": "starting_cell",
          "type": "uint256"
        },
        {
          "internalType": "uint16",
          "name": "direction",
          "type": "uint16"
        },
        {
          "internalType": "uint16",
          "name": "dimension",
          "type": "uint16"
        },
        {
          "internalType": "uint256",
          "name": "game_ID",
          "type": "uint256"
        }
      ],
      "name": "verify_sunk",
      "outputs": [
        {
          "internalType": "bool",
          "name": "result",
          "type": "bool"
        }
      ],
      "stateMutability": "nonpayable",
      "type": "function"
    },
    {
      "inputs": [
        {
          "internalType": "uint256",
          "name": "game_ID",
          "type": "uint256"
        },
        {
          "internalType": "uint256",
          "name": "amount",
          "type": "uint256"
        }
      ],
      "name": "withdraw_reward",
      "outputs": [
        {
          "internalType": "bool",
          "name": "result",
          "type": "bool"
        }
      ],
      "stateMutability": "nonpayable",
      "type": "function"
    }
  ],
  "bytecode": "0x6080604052600060af5534801561001557600080fd5b50615a3780620000266000396000f3fe6080604052600436106101c25760003560e01c80635b7bed92116100f7578063b5452ad811610095578063bf0cf39e11610064578063bf0cf39e1461077a578063cde6381c146107b7578063e8f03f73146107f4578063f74d763d14610831576101c2565b8063b5452ad8146106aa578063b69ef8a8146106d5578063b9abfc3114610700578063bd1e01401461073d576101c2565b80635e443e04116100d15780635e443e04146105b6578063803c5ee2146105f3578063a9fb763c14610630578063b21b720e1461066d576101c2565b80635b7bed921461050c5780635b9e6b1d146105495780635d2f015c14610586576101c2565b806343a87ce3116101645780634c8564601161013e5780634c856460146104295780634d07e9551461045557806350762f761461049257806350f24694146104cf576101c2565b806343a87ce31461037257806345a22f27146103af5780634b9d7889146103ec576101c2565b80631df7755e116101a05780631df7755e1461027e5780632b0d626a146102bb5780633e4f49e6146102f85780633f1e623314610335576101c2565b8063098b472e146101c75780630d907aee146102045780631cbeae5e14610241575b600080fd5b3480156101d357600080fd5b506101ee60048036038101906101e99190615051565b61086e565b6040516101fb9190615099565b60405180910390f35b34801561021057600080fd5b5061022b60048036038101906102269190615051565b610898565b6040516102389190615099565b60405180910390f35b34801561024d57600080fd5b5061026860048036038101906102639190615051565b6108c2565b60405161027591906150f5565b60405180910390f35b34801561028a57600080fd5b506102a560048036038101906102a091906151ae565b6108f8565b6040516102b29190615099565b60405180910390f35b3480156102c757600080fd5b506102e260048036038101906102dd9190615051565b610e57565b6040516102ef9190615265565b60405180910390f35b34801561030457600080fd5b5061031f600480360381019061031a9190615051565b610e86565b60405161032c919061528f565b60405180910390f35b34801561034157600080fd5b5061035c60048036038101906103579190615051565b610ea1565b60405161036991906152cb565b60405180910390f35b34801561037e57600080fd5b50610399600480360381019061039491906151ae565b610ed7565b6040516103a69190615099565b60405180910390f35b3480156103bb57600080fd5b506103d660048036038101906103d191906152e6565b61133e565b6040516103e39190615099565b60405180910390f35b3480156103f857600080fd5b50610413600480360381019061040e9190615051565b612268565b604051610420919061528f565b60405180910390f35b34801561043557600080fd5b5061043e612283565b60405161044c9291906153a8565b60405180910390f35b34801561046157600080fd5b5061047c60048036038101906104779190615407565b61251b565b6040516104899190615099565b60405180910390f35b34801561049e57600080fd5b506104b960048036038101906104b4919061545a565b6128ad565b6040516104c69190615099565b60405180910390f35b3480156104db57600080fd5b506104f660048036038101906104f191906154c6565b612a79565b6040516105039190615099565b60405180910390f35b34801561051857600080fd5b50610533600480360381019061052e9190615051565b61393d565b6040516105409190615550565b60405180910390f35b34801561055557600080fd5b50610570600480360381019061056b9190615051565b613958565b60405161057d9190615099565b60405180910390f35b6105a0600480360381019061059b919061545a565b613982565b6040516105ad9190615099565b60405180910390f35b3480156105c257600080fd5b506105dd60048036038101906105d891906151ae565b613bd2565b6040516105ea9190615099565b60405180910390f35b3480156105ff57600080fd5b5061061a6004803603810190610615919061556b565b614005565b6040516106279190615099565b60405180910390f35b34801561063c57600080fd5b5061065760048036038101906106529190615051565b6143c2565b604051610664919061528f565b60405180910390f35b34801561067957600080fd5b50610694600480360381019061068f9190615051565b6143dd565b6040516106a19190615099565b60405180910390f35b3480156106b657600080fd5b506106bf6144d6565b6040516106cc919061528f565b60405180910390f35b3480156106e157600080fd5b506106ea6145e8565b6040516106f7919061528f565b60405180910390f35b34801561070c57600080fd5b506107276004803603810190610722919061556b565b6145ee565b6040516107349190615099565b60405180910390f35b34801561074957600080fd5b50610764600480360381019061075f9190615051565b614907565b60405161077191906152cb565b60405180910390f35b34801561078657600080fd5b506107a1600480360381019061079c9190615051565b61493d565b6040516107ae9190615099565b60405180910390f35b3480156107c357600080fd5b506107de60048036038101906107d9919061545a565b614967565b6040516107eb919061528f565b60405180910390f35b34801561080057600080fd5b5061081b60048036038101906108169190615051565b614f07565b6040516108289190615099565b60405180910390f35b34801561083d57600080fd5b5061085860048036038101906108539190615051565b614f31565b6040516108659190615550565b60405180910390f35b6085816014811061087e57600080fd5b60209182820401919006915054906101000a900460ff1681565b608481601481106108a857600080fd5b60209182820401919006915054906101000a900460ff1681565b601481600a81106108d257600080fd5b016000915054906101000a900473ffffffffffffffffffffffffffffffffffffffff1681565b6000600a821061090757600080fd5b6040831061091457600080fd5b60018414801561093957506002609b83600a8110610935576109346155be565b5b0154145b80156109a55750600082600a8110610954576109536155be565b5b0160009054906101000a900473ffffffffffffffffffffffffffffffffffffffff1673ffffffffffffffffffffffffffffffffffffffff163373ffffffffffffffffffffffffffffffffffffffff16145b80610a3d57506002841480156109d057506003609b83600a81106109cc576109cb6155be565b5b0154145b8015610a3c5750600a82600a81106109eb576109ea6155be565b5b0160009054906101000a900473ffffffffffffffffffffffffffffffffffffffff1673ffffffffffffffffffffffffffffffffffffffff163373ffffffffffffffffffffffffffffffffffffffff16145b5b610a4657600080fd5b600260ff16603284600187610a5b919061561c565b6040610a679190615650565b6040866002610a769190615650565b610a809190615650565b610a8a91906156aa565b610a9491906156aa565b6105008110610aa657610aa56155be565b5b601091828204019190066002029054906101000a900461ffff1661ffff161480610b4b5750600060ff16603284600187610ae0919061561c565b6040610aec9190615650565b6040866002610afb9190615650565b610b059190615650565b610b0f91906156aa565b610b1991906156aa565b6105008110610b2b57610b2a6155be565b5b601091828204019190066002029054906101000a900461ffff1661ffff16145b610b5457600080fd5b6000610b708660ff16600660ff16614f4c90919063ffffffff16565b604051602001610b8091906156ff565b60405160208183030381529060405280519060200120905060018503610c0f57610c01888880806020026020016040519081016040528093929190818152602001838360200280828437600081840152601f19601f82011690508083019250505050505050601e85600a8110610bf957610bf86155be565b5b015483614f62565b610c0a57600080fd5b610c7a565b610c70888880806020026020016040519081016040528093929190818152602001838360200280828437600081840152601f19601f82011690508083019250505050505050602885600a8110610c6857610c676155be565b5b015483614f62565b610c7957600080fd5b5b600060ff16603285600188610c8f919061561c565b6040610c9b9190615650565b6040876002610caa9190615650565b610cb49190615650565b610cbe91906156aa565b610cc891906156aa565b6105008110610cda57610cd96155be565b5b601091828204019190066002029054906101000a900461ffff1661ffff1603610d8757600660ff16603285600188610d12919061561c565b6040610d1e9190615650565b6040876002610d2d9190615650565b610d379190615650565b610d4191906156aa565b610d4b91906156aa565b6105008110610d5d57610d5c6155be565b5b601091828204019190066002026101000a81548161ffff021916908361ffff160217905550610e0d565b600560ff16603285600188610d9c919061561c565b6040610da89190615650565b6040876002610db79190615650565b610dc19190615650565b610dcb91906156aa565b610dd591906156aa565b6105008110610de757610de66155be565b5b601091828204019190066002026101000a81548161ffff021916908361ffff1602179055505b7f5442160c48f24a5ca88b79cfea8f00bfd27a618209d35557f776a45000b86d15858585604051610e409392919061571a565b60405180910390a160019150509695505050505050565b6032816105008110610e6857600080fd5b60109182820401919006600202915054906101000a900461ffff1681565b609b81600a8110610e9657600080fd5b016000915090505481565b600a81600a8110610eb157600080fd5b016000915054906101000a900473ffffffffffffffffffffffffffffffffffffffff1681565b6000600a8210610ee657600080fd5b60408310610ef357600080fd5b600184148015610f1857506005609b83600a8110610f1457610f136155be565b5b0154145b8015610f8457503373ffffffffffffffffffffffffffffffffffffffff16600083600a8110610f4a57610f496155be565b5b0160009054906101000a900473ffffffffffffffffffffffffffffffffffffffff1673ffffffffffffffffffffffffffffffffffffffff16145b8061101c5750600284148015610faf57506006609b83600a8110610fab57610faa6155be565b5b0154145b801561101b57503373ffffffffffffffffffffffffffffffffffffffff16600a83600a8110610fe157610fe06155be565b5b0160009054906101000a900473ffffffffffffffffffffffffffffffffffffffff1673ffffffffffffffffffffffffffffffffffffffff16145b5b61102557600080fd5b600460ff1660328460018761103a919061561c565b60406110469190615650565b60408660026110559190615650565b61105f9190615650565b61106991906156aa565b61107391906156aa565b6105008110611085576110846155be565b5b601091828204019190066002029054906101000a900461ffff1661ffff16146110ad57600080fd5b60006110c98660ff16600660ff16614f4c90919063ffffffff16565b6040516020016110d991906156ff565b604051602081830303815290604052805190602001209050600185036111685761115a888880806020026020016040519081016040528093929190818152602001838360200280828437600081840152601f19601f82011690508083019250505050505050601e85600a8110611152576111516155be565b5b015483614f62565b61116357600080fd5b6111d3565b6111c9888880806020026020016040519081016040528093929190818152602001838360200280828437600081840152601f19601f82011690508083019250505050505050602885600a81106111c1576111c06155be565b5b015483614f62565b6111d257600080fd5b5b600260ff166032856001886111e8919061561c565b60406111f49190615650565b60408760026112039190615650565b61120d9190615650565b61121791906156aa565b61122191906156aa565b6105008110611233576112326155be565b5b601091828204019190066002026101000a81548161ffff021916908361ffff160217905550600185036112bc576007609b84600a8110611276576112756155be565b5b01819055507f7c6e43f2889ad2dbe0acb63c2e877d24437cba45e3919f2fb02ff980aec6a242600285856040516112af93929190615796565b60405180910390a1611314565b6001609b84600a81106112d2576112d16155be565b5b01819055507f7c6e43f2889ad2dbe0acb63c2e877d24437cba45e3919f2fb02ff980aec6a2426001858560405161130b93929190615808565b60405180910390a15b600060a584600a811061132a576113296155be565b5b018190555060019150509695505050505050565b6000600a821061134d57600080fd5b6040851061135a57600080fd5b6005841115801561136c575060008414155b61137557600080fd5b600361ffff1683148061138c5750600161ffff1683145b61139557600080fd5b600161ffff1683036113d657604060086001866113b2919061561c565b6113bc9190615650565b866113c791906156aa565b106113d157600080fd5b61144d565b6000805b866008836113e89190615650565b116114005781806113f89061583f565b9250506113da565b5b6001868861140f91906156aa565b611419919061561c565b6008826114269190615650565b1161143e5780806114369061583f565b915050611401565b80821461144a57600080fd5b50505b6001861480156114bd5750600082600a811061146c5761146b6155be565b5b0160009054906101000a900473ffffffffffffffffffffffffffffffffffffffff1673ffffffffffffffffffffffffffffffffffffffff163373ffffffffffffffffffffffffffffffffffffffff16145b80156114de57506005609b83600a81106114da576114d96155be565b5b0154145b8061157657506002861480156115545750600a82600a8110611503576115026155be565b5b0160009054906101000a900473ffffffffffffffffffffffffffffffffffffffff1673ffffffffffffffffffffffffffffffffffffffff163373ffffffffffffffffffffffffffffffffffffffff16145b801561157557506006609b83600a8110611571576115706155be565b5b0154145b5b61157f57600080fd5b600184036115e55760001515608260018860028661159d9190615650565b6115a791906156aa565b6115b1919061561c565b601481106115c2576115c16155be565b5b602091828204019190069054906101000a900460ff161515146115e457600080fd5b5b6002840361164b576000151560836001886002866116039190615650565b61160d91906156aa565b611617919061561c565b60148110611628576116276155be565b5b602091828204019190069054906101000a900460ff1615151461164a57600080fd5b5b600384036116b1576000151560846001886002866116699190615650565b61167391906156aa565b61167d919061561c565b6014811061168e5761168d6155be565b5b602091828204019190069054906101000a900460ff161515146116b057600080fd5b5b60048403611717576000151560856001886002866116cf9190615650565b6116d991906156aa565b6116e3919061561c565b601481106116f4576116f36155be565b5b602091828204019190069054906101000a900460ff1615151461171657600080fd5b5b6005840361177d576000151560866001886002866117359190615650565b61173f91906156aa565b611749919061561c565b6014811061175a576117596155be565b5b602091828204019190069054906101000a900460ff1615151461177c57600080fd5b5b60006117998860ff16600660ff16614f4c90919063ffffffff16565b6040516020016117a991906156ff565b604051602081830303815290604052805190602001209050600187036118385761182a8a8a80806020026020016040519081016040528093929190818152602001838360200280828437600081840152601f19601f82011690508083019250505050505050601e85600a8110611822576118216155be565b5b015483614f62565b61183357600080fd5b6118a3565b6118998a8a80806020026020016040519081016040528093929190818152602001838360200280828437600081840152601f19601f82011690508083019250505050505050602885600a8110611891576118906155be565b5b015483614f62565b6118a257600080fd5b5b6000806000600361ffff168703611a1857600092505b87831015611a1357600460ff166032848b60018e6118d7919061561c565b60406118e39190615650565b60408b60026118f29190615650565b6118fc9190615650565b61190691906156aa565b61191091906156aa565b61191a91906156aa565b610500811061192c5761192b6155be565b5b601091828204019190066002029054906101000a900461ffff1661ffff160361196257818061195a9061583f565b925050611a00565b600260ff166032848b60018e611978919061561c565b60406119849190615650565b60408b60026119939190615650565b61199d9190615650565b6119a791906156aa565b6119b191906156aa565b6119bb91906156aa565b61050081106119cd576119cc6155be565b5b601091828204019190066002029054906101000a900461ffff1661ffff16036119ff5780806119fb9061583f565b9150505b5b8280611a0b9061583f565b9350506118b9565b611b9d565b600161ffff168703611b9c57600092505b87831015611b9b57600460ff166032600885611a459190615650565b8b60018e611a53919061561c565b6040611a5f9190615650565b60408b6002611a6e9190615650565b611a789190615650565b611a8291906156aa565b611a8c91906156aa565b611a9691906156aa565b6105008110611aa857611aa76155be565b5b601091828204019190066002029054906101000a900461ffff1661ffff1603611ade578180611ad69061583f565b925050611b88565b600260ff166032600885611af29190615650565b8b60018e611b00919061561c565b6040611b0c9190615650565b60408b6002611b1b9190615650565b611b259190615650565b611b2f91906156aa565b611b3991906156aa565b611b4391906156aa565b6105008110611b5557611b546155be565b5b601091828204019190066002029054906101000a900461ffff1661ffff1603611b87578080611b839061583f565b9150505b5b8280611b939061583f565b935050611a29565b5b5b600361ffff168703611c5e57600092505b87831015611c5957600360ff166032848b60018e611bcc919061561c565b6040611bd89190615650565b60408b6002611be79190615650565b611bf19190615650565b611bfb91906156aa565b611c0591906156aa565b611c0f91906156aa565b6105008110611c2157611c206155be565b5b601091828204019190066002026101000a81548161ffff021916908361ffff1602179055508280611c519061583f565b935050611bae565b611d28565b600161ffff168703611d2757600092505b87831015611d2657600360ff166032600885611c8b9190615650565b8b60018e611c99919061561c565b6040611ca59190615650565b60408b6002611cb49190615650565b611cbe9190615650565b611cc891906156aa565b611cd291906156aa565b611cdc91906156aa565b6105008110611cee57611ced6155be565b5b601091828204019190066002026101000a81548161ffff021916908361ffff1602179055508280611d1e9061583f565b935050611c6f565b5b5b60018803611d8d576001608260018c60028a611d449190615650565b611d4e91906156aa565b611d58919061561c565b60148110611d6957611d686155be565b5b602091828204019190066101000a81548160ff021916908315150217905550611f32565b60028803611df2576001608360018c60028a611da99190615650565b611db391906156aa565b611dbd919061561c565b60148110611dce57611dcd6155be565b5b602091828204019190066101000a81548160ff021916908315150217905550611f31565b60038803611e57576001608460018c60028a611e0e9190615650565b611e1891906156aa565b611e22919061561c565b60148110611e3357611e326155be565b5b602091828204019190066101000a81548160ff021916908315150217905550611f30565b60048803611ebc576001608560018c60028a611e739190615650565b611e7d91906156aa565b611e87919061561c565b60148110611e9857611e976155be565b5b602091828204019190066101000a81548160ff021916908315150217905550611f2f565b60058803611f21576001608660018c60028a611ed89190615650565b611ee291906156aa565b611eec919061561c565b60148110611efd57611efc6155be565b5b602091828204019190066101000a81548160ff021916908315150217905550611f2e565b600094505050505061225c565b5b5b5b5b60011515608260018c60028a611f489190615650565b611f5291906156aa565b611f5c919061561c565b60148110611f6d57611f6c6155be565b5b602091828204019190069054906101000a900460ff161515148015611fe2575060011515608360018c60028a611fa39190615650565b611fad91906156aa565b611fb7919061561c565b60148110611fc857611fc76155be565b5b602091828204019190069054906101000a900460ff161515145b801561203e575060011515608460018c60028a611fff9190615650565b61200991906156aa565b612013919061561c565b60148110612024576120236155be565b5b602091828204019190069054906101000a900460ff161515145b801561209a575060011515608560018c60028a61205b9190615650565b61206591906156aa565b61206f919061561c565b601481106120805761207f6155be565b5b602091828204019190069054906101000a900460ff161515145b80156120f6575060011515608660018c60028a6120b79190615650565b6120c191906156aa565b6120cb919061561c565b601481106120dc576120db6155be565b5b602091828204019190069054906101000a900460ff161515145b156121b55760018a03612123576003609b87600a8110612119576121186155be565b5b018190555061213f565b6002609b87600a8110612139576121386155be565b5b01819055505b600060a587600a8110612155576121546155be565b5b01819055507f9033faad605f3efbf210ef818479e8025a88ee936163acbf09bfd50672aaaf6b609b87600a811061218f5761218e6155be565b5b0154876040516121a09291906153a8565b60405180910390a1600194505050505061225c565b60018a036121dd576007609b87600a81106121d3576121d26155be565b5b01819055506121f9565b6001609b87600a81106121f3576121f26155be565b5b01819055505b600060a587600a811061220f5761220e6155be565b5b01819055507fab0e6c76221a8b2421102edb6b081ff4ead5630932a343d2f9f903794255463d8a8a898b8a60405161224b959493929190615887565b60405180910390a160019450505050505b98975050505050505050565b60a581600a811061227857600080fd5b016000915090505481565b60008060005b600a81101561250d576000609b82600a81106122a8576122a76155be565b5b01540361238f5733600082600a81106122c4576122c36155be565b5b0160006101000a81548173ffffffffffffffffffffffffffffffffffffffff021916908373ffffffffffffffffffffffffffffffffffffffff1602179055506008609b82600a8110612319576123186155be565b5b01819055507fdc779d7e856995ce3047ce9dfcaeb3f9915645cbd8a8824a118bb661f02c9f8e81609b83600a8110612354576123536155be565b5b015433604051612366939291906158da565b60405180910390a180609b82600a8110612383576123826155be565b5b01549250925050612517565b6008609b82600a81106123a5576123a46155be565b5b015414801561241557503373ffffffffffffffffffffffffffffffffffffffff16600082600a81106123da576123d96155be565b5b0160009054906101000a900473ffffffffffffffffffffffffffffffffffffffff1673ffffffffffffffffffffffffffffffffffffffff1614155b156124fa5733600a82600a811061242f5761242e6155be565b5b0160006101000a81548173ffffffffffffffffffffffffffffffffffffffff021916908373ffffffffffffffffffffffffffffffffffffffff160217905550600a609b82600a8110612484576124836155be565b5b01819055507fdc779d7e856995ce3047ce9dfcaeb3f9915645cbd8a8824a118bb661f02c9f8e81609b83600a81106124bf576124be6155be565b5b0154336040516124d1939291906158da565b60405180910390a180609b82600a81106124ee576124ed6155be565b5b01549250925050612517565b80806125059061583f565b915050612289565b600a600092509250505b9091565b6000600a831061252a57600080fd5b60018414801561256f5750600e609b84600a811061254b5761254a6155be565b5b0154148061256e5750600f609b84600a811061256a576125696155be565b5b0154145b5b80156125db5750600083600a811061258a576125896155be565b5b0160009054906101000a900473ffffffffffffffffffffffffffffffffffffffff1673ffffffffffffffffffffffffffffffffffffffff163373ffffffffffffffffffffffffffffffffffffffff16145b8061269357506002841480156126265750600e609b84600a8110612602576126016155be565b5b0154148061262557506010609b84600a8110612621576126206155be565b5b0154145b5b80156126925750600a83600a8110612641576126406155be565b5b0160009054906101000a900473ffffffffffffffffffffffffffffffffffffffff1673ffffffffffffffffffffffffffffffffffffffff163373ffffffffffffffffffffffffffffffffffffffff16145b5b61269c57600080fd5b6001840361279f57600e609b84600a81106126ba576126b96155be565b5b0154036126e1576010609b84600a81106126d7576126d66155be565b5b018190555061271b565b600f609b84600a81106126f7576126f66155be565b5b01540361271a576007609b84600a8110612714576127136155be565b5b01819055505b5b600060a584600a8110612731576127306155be565b5b018190555081601e84600a811061274b5761274a6155be565b5b01819055507f9033faad605f3efbf210ef818479e8025a88ee936163acbf09bfd50672aaaf6b609b84600a8110612785576127846155be565b5b0154846040516127969291906153a8565b60405180910390a15b600284036128a257600e609b84600a81106127bd576127bc6155be565b5b0154036127e457600f609b84600a81106127da576127d96155be565b5b018190555061281e565b6010609b84600a81106127fa576127f96155be565b5b01540361281d576007609b84600a8110612817576128166155be565b5b01819055505b5b600060a584600a8110612834576128336155be565b5b018190555081602884600a811061284e5761284d6155be565b5b01819055507f9033faad605f3efbf210ef818479e8025a88ee936163acbf09bfd50672aaaf6b609b84600a8110612888576128876155be565b5b0154846040516128999291906153a8565b60405180910390a15b600190509392505050565b60006004609b84600a81106128c5576128c46155be565b5b01541480156129345750601483600a81106128e3576128e26155be565b5b0160009054906101000a900473ffffffffffffffffffffffffffffffffffffffff1673ffffffffffffffffffffffffffffffffffffffff163373ffffffffffffffffffffffffffffffffffffffff16145b61293d57600080fd5b608760018461294c91906156aa565b6014811061295d5761295c6155be565b5b015460878460148110612973576129726155be565b5b015461297f91906156aa565b821461298a57600080fd5b8160af54101561299957600080fd5b670de0b6b3a7640000826129ad9190615650565b60af60008282546129be919061561c565b92505081905550601483600a81106129d9576129d86155be565b5b0160009054906101000a900473ffffffffffffffffffffffffffffffffffffffff1673ffffffffffffffffffffffffffffffffffffffff166108fc670de0b6b3a764000084612a289190615650565b9081150290604051600060405180830381858888f19350505050158015612a53573d6000803e3d6000fd5b506011609b84600a8110612a6a57612a696155be565b5b01819055506001905092915050565b6000600a8210612a8857600080fd5b600161ffff168461ffff161480612aa75750600361ffff168461ffff16145b612ab057600080fd5b60058361ffff1611158015612aca575060008361ffff1614155b612ad357600080fd5b6002609b83600a8110612ae957612ae86155be565b5b0154148015612b585750600082600a8110612b0757612b066155be565b5b0160009054906101000a900473ffffffffffffffffffffffffffffffffffffffff1673ffffffffffffffffffffffffffffffffffffffff163373ffffffffffffffffffffffffffffffffffffffff16145b80612be457506003609b83600a8110612b7457612b736155be565b5b0154148015612be35750600a82600a8110612b9257612b916155be565b5b0160009054906101000a900473ffffffffffffffffffffffffffffffffffffffff1673ffffffffffffffffffffffffffffffffffffffff163373ffffffffffffffffffffffffffffffffffffffff16145b5b612bed57600080fd5b60018361ffff1603612c5757600015156082600188600286612c0f9190615650565b612c1991906156aa565b612c23919061561c565b60148110612c3457612c336155be565b5b602091828204019190069054906101000a900460ff16151514612c5657600080fd5b5b60028361ffff1603612cc157600015156083600188600286612c799190615650565b612c8391906156aa565b612c8d919061561c565b60148110612c9e57612c9d6155be565b5b602091828204019190069054906101000a900460ff16151514612cc057600080fd5b5b60038361ffff1603612d2b57600015156084600188600286612ce39190615650565b612ced91906156aa565b612cf7919061561c565b60148110612d0857612d076155be565b5b602091828204019190069054906101000a900460ff16151514612d2a57600080fd5b5b60048361ffff1603612d9557600015156085600188600286612d4d9190615650565b612d5791906156aa565b612d61919061561c565b60148110612d7257612d716155be565b5b602091828204019190069054906101000a900460ff16151514612d9457600080fd5b5b60058361ffff1603612dff57600015156086600188600286612db79190615650565b612dc191906156aa565b612dcb919061561c565b60148110612ddc57612ddb6155be565b5b602091828204019190069054906101000a900460ff16151514612dfe57600080fd5b5b600161ffff168461ffff160361311b57600060406008600186612e229190615911565b61ffff16612e309190615650565b87612e3b91906156aa565b10612e4557600080fd5b60005b8461ffff1681101561304c57600560ff166032826008612e689190615650565b8960018c612e76919061561c565b6040612e829190615650565b6040896002612e919190615650565b612e9b9190615650565b612ea591906156aa565b612eaf91906156aa565b612eb991906156aa565b6105008110612ecb57612eca6155be565b5b601091828204019190066002029054906101000a900461ffff1661ffff161480612f875750600660ff166032826008612f049190615650565b8960018c612f12919061561c565b6040612f1e9190615650565b6040896002612f2d9190615650565b612f379190615650565b612f4191906156aa565b612f4b91906156aa565b612f5591906156aa565b6105008110612f6757612f666155be565b5b601091828204019190066002029054906101000a900461ffff1661ffff16145b612f9057600080fd5b600660ff166032826008612fa49190615650565b8960018c612fb2919061561c565b6040612fbe9190615650565b6040896002612fcd9190615650565b612fd79190615650565b612fe191906156aa565b612feb91906156aa565b612ff591906156aa565b6105008110613007576130066155be565b5b601091828204019190066002029054906101000a900461ffff1661ffff16036130395781806130359061583f565b9250505b80806130449061583f565b915050612e48565b506000811161305a57600080fd5b60005b8461ffff1681101561311857600760ff16603282600861307d9190615650565b8960018c61308b919061561c565b60406130979190615650565b60408960026130a69190615650565b6130b09190615650565b6130ba91906156aa565b6130c491906156aa565b6130ce91906156aa565b61050081106130e0576130df6155be565b5b601091828204019190066002026101000a81548161ffff021916908361ffff16021790555080806131109061583f565b91505061305d565b50505b600361ffff168461ffff160361347557604060018461ffff168761313f91906156aa565b613149919061561c565b1061315357600080fd5b60008060005b876008836131679190615650565b1161317f5781806131779061583f565b925050613159565b5b60018661ffff168961319291906156aa565b61319c919061561c565b6008826131a99190615650565b116131c15780806131b99061583f565b915050613180565b8082146131cd57600080fd5b60005b8661ffff168110156133b057600560ff166032828b60018e6131f2919061561c565b60406131fe9190615650565b60408b600261320d9190615650565b6132179190615650565b61322191906156aa565b61322b91906156aa565b61323591906156aa565b6105008110613247576132466155be565b5b601091828204019190066002029054906101000a900461ffff1661ffff1614806132f75750600660ff166032828b60018e613282919061561c565b604061328e9190615650565b60408b600261329d9190615650565b6132a79190615650565b6132b191906156aa565b6132bb91906156aa565b6132c591906156aa565b61050081106132d7576132d66155be565b5b601091828204019190066002029054906101000a900461ffff1661ffff16145b61330057600080fd5b600660ff166032828b60018e613316919061561c565b60406133229190615650565b60408b60026133319190615650565b61333b9190615650565b61334591906156aa565b61334f91906156aa565b61335991906156aa565b610500811061336b5761336a6155be565b5b601091828204019190066002029054906101000a900461ffff1661ffff160361339d5783806133999061583f565b9450505b80806133a89061583f565b9150506131d0565b50600083116133be57600080fd5b60005b8661ffff1681101561347057600760ff166032828b60018e6133e3919061561c565b60406133ef9190615650565b60408b60026133fe9190615650565b6134089190615650565b61341291906156aa565b61341c91906156aa565b61342691906156aa565b6105008110613438576134376155be565b5b601091828204019190066002026101000a81548161ffff021916908361ffff16021790555080806134689061583f565b9150506133c1565b505050505b60018361ffff16036134de57600160826001886002866134959190615650565b61349f91906156aa565b6134a9919061561c565b601481106134ba576134b96155be565b5b602091828204019190066101000a81548160ff021916908315150217905550613682565b60028361ffff160361354757600160836001886002866134fe9190615650565b61350891906156aa565b613512919061561c565b60148110613523576135226155be565b5b602091828204019190066101000a81548160ff021916908315150217905550613681565b60038361ffff16036135b057600160846001886002866135679190615650565b61357191906156aa565b61357b919061561c565b6014811061358c5761358b6155be565b5b602091828204019190066101000a81548160ff021916908315150217905550613680565b60048361ffff160361361957600160856001886002866135d09190615650565b6135da91906156aa565b6135e4919061561c565b601481106135f5576135f46155be565b5b602091828204019190066101000a81548160ff02191690831515021790555061367f565b60058361ffff160361367e57600160866001886002866136399190615650565b61364391906156aa565b61364d919061561c565b6014811061365e5761365d6155be565b5b602091828204019190066101000a81548160ff0219169083151502179055505b5b5b5b5b60826001876002856136949190615650565b61369e91906156aa565b6136a8919061561c565b601481106136b9576136b86155be565b5b602091828204019190069054906101000a900460ff168015613724575060836001876002856136e89190615650565b6136f291906156aa565b6136fc919061561c565b6014811061370d5761370c6155be565b5b602091828204019190069054906101000a900460ff165b80156137795750608460018760028561373d9190615650565b61374791906156aa565b613751919061561c565b60148110613762576137616155be565b5b602091828204019190069054906101000a900460ff165b80156137ce575060856001876002856137929190615650565b61379c91906156aa565b6137a6919061561c565b601481106137b7576137b66155be565b5b602091828204019190069054906101000a900460ff165b8015613823575060866001876002856137e79190615650565b6137f191906156aa565b6137fb919061561c565b6014811061380c5761380b6155be565b5b602091828204019190069054906101000a900460ff165b156138f45733601483600a811061383d5761383c6155be565b5b0160006101000a81548173ffffffffffffffffffffffffffffffffffffffff021916908373ffffffffffffffffffffffffffffffffffffffff1602179055506004609b83600a8110613892576138916155be565b5b0181905550600060a583600a81106138ad576138ac6155be565b5b01819055507f4390b36196c6492dbb7eb351e8459693cfdb32928ba117dda2bfd6f520b2c3a186836040516138e39291906153a8565b60405180910390a160019050613934565b7faaf848ca2d72cf88e85aad4e9ae3db24100112e167a9fcbc7bd12487f7b4397786848460405161392793929190615978565b60405180910390a1600190505b95945050505050565b602881600a811061394d57600080fd5b016000915090505481565b6083816014811061396857600080fd5b60209182820401919006915054906101000a900460ff1681565b6000600a821061399157600080fd5b60018314806139a05750600283145b6139a957600080fd5b670de0b6b3a7640000608783601481106139c6576139c56155be565b5b01546139d29190615650565b34146139dd57600080fd5b60018303613ac657600b609b83600a81106139fb576139fa6155be565b5b015403613a2257600d609b83600a8110613a1857613a176155be565b5b0181905550613a5c565b600c609b83600a8110613a3857613a376155be565b5b015403613a5b57600e609b83600a8110613a5557613a546155be565b5b01819055505b5b600060a583600a8110613a7257613a716155be565b5b01819055507f9033faad605f3efbf210ef818479e8025a88ee936163acbf09bfd50672aaaf6b609b83600a8110613aac57613aab6155be565b5b015483604051613abd9291906153a8565b60405180910390a15b60028303613baf57600b609b83600a8110613ae457613ae36155be565b5b015403613b0b57600c609b83600a8110613b0157613b006155be565b5b0181905550613b45565b600d609b83600a8110613b2157613b206155be565b5b015403613b4457600e609b83600a8110613b3e57613b3d6155be565b5b01819055505b5b600060a583600a8110613b5b57613b5a6155be565b5b01819055507f9033faad605f3efbf210ef818479e8025a88ee936163acbf09bfd50672aaaf6b609b83600a8110613b9557613b946155be565b5b015483604051613ba69291906153a8565b60405180910390a15b3460af6000828254613bc191906156aa565b925050819055506001905092915050565b6000600a8210613be157600080fd5b60408310613bee57600080fd5b600184148015613c5e5750600082600a8110613c0d57613c0c6155be565b5b0160009054906101000a900473ffffffffffffffffffffffffffffffffffffffff1673ffffffffffffffffffffffffffffffffffffffff163373ffffffffffffffffffffffffffffffffffffffff16145b8015613c7f57506005609b83600a8110613c7b57613c7a6155be565b5b0154145b80613d175750600284148015613cf55750600a82600a8110613ca457613ca36155be565b5b0160009054906101000a900473ffffffffffffffffffffffffffffffffffffffff1673ffffffffffffffffffffffffffffffffffffffff163373ffffffffffffffffffffffffffffffffffffffff16145b8015613d1657506006609b83600a8110613d1257613d116155be565b5b0154145b5b613d2057600080fd5b600460ff16603284600187613d35919061561c565b6040613d419190615650565b6040866002613d509190615650565b613d5a9190615650565b613d6491906156aa565b613d6e91906156aa565b6105008110613d8057613d7f6155be565b5b601091828204019190066002029054906101000a900461ffff1661ffff1614613da857600080fd5b6000613dc48660ff16600160ff16614f4c90919063ffffffff16565b604051602001613dd491906156ff565b60405160208183030381529060405280519060200120905060018503613e6357613e55888880806020026020016040519081016040528093929190818152602001838360200280828437600081840152601f19601f82011690508083019250505050505050601e85600a8110613e4d57613e4c6155be565b5b015483614f62565b613e5e57600080fd5b613ece565b613ec4888880806020026020016040519081016040528093929190818152602001838360200280828437600081840152601f19601f82011690508083019250505050505050602885600a8110613ebc57613ebb6155be565b5b015483614f62565b613ecd57600080fd5b5b600160ff166032856040600189613ee5919061561c565b613eef9190615650565b6040876002613efe9190615650565b613f089190615650565b613f1291906156aa565b613f1c91906156aa565b6105008110613f2e57613f2d6155be565b5b601091828204019190066002026101000a81548161ffff021916908361ffff16021790555060028503613f7b576001609b84600a8110613f7157613f706155be565b5b0181905550613fa0565b60018503613f9f576007609b84600a8110613f9957613f986155be565b5b01819055505b5b600060a584600a8110613fb657613fb56155be565b5b01819055507f13577feb22c87b6c589c21cd1c87071410f6bb2b4c5d8cef552f8ff7ce1cb54c858585604051613fee9392919061571a565b60405180910390a160019150509695505050505050565b600060018314806140165750600283145b80156140225750600a82105b801561402f575060008414155b80156140505750600a609b83600a811061404c5761404b6155be565b5b0154145b61405957600080fd5b6001830361420357600082600a8110614075576140746155be565b5b0160009054906101000a900473ffffffffffffffffffffffffffffffffffffffff1673ffffffffffffffffffffffffffffffffffffffff163373ffffffffffffffffffffffffffffffffffffffff16036141fe578360876002846140d99190615650565b601481106140ea576140e96155be565b5b0181905550608760016002846141009190615650565b61410a91906156aa565b6014811061411b5761411a6155be565b5b0154608760028461412c9190615650565b6014811061413d5761413c6155be565b5b0154036141b857600b609b83600a811061415a576141596155be565b5b0181905550600060a583600a8110614175576141746155be565b5b01819055507f4b3d2af5d968c03e9fd076c6dafe02c8d56df0c7f959be0df4c4610f71622f9484836040516141ab9291906153a8565b60405180910390a16141f5565b7f6266a39f3ca3a5ed3a436752d6ecaef2cc9b13d37b5e340f31a44337d4fcfc4d600185846040516141ec93929190615808565b60405180910390a15b600190506143bb565b6143b6565b600283036143b557600a82600a811061421f5761421e6155be565b5b0160009054906101000a900473ffffffffffffffffffffffffffffffffffffffff1673ffffffffffffffffffffffffffffffffffffffff163373ffffffffffffffffffffffffffffffffffffffff16036143b45783608760016002856142859190615650565b61428f91906156aa565b601481106142a05761429f6155be565b5b0181905550608760016002846142b69190615650565b6142c091906156aa565b601481106142d1576142d06155be565b5b015460876002846142e29190615650565b601481106142f3576142f26155be565b5b01540361436e57600b609b83600a81106143105761430f6155be565b5b0181905550600060a583600a811061432b5761432a6155be565b5b01819055507f4b3d2af5d968c03e9fd076c6dafe02c8d56df0c7f959be0df4c4610f71622f9484836040516143619291906153a8565b60405180910390a16143ab565b7f6266a39f3ca3a5ed3a436752d6ecaef2cc9b13d37b5e340f31a44337d4fcfc4d600285846040516143a293929190615796565b60405180910390a15b600190506143bb565b5b5b600090505b9392505050565b608781601481106143d257600080fd5b016000915090505481565b6000600a82106143ec57600080fd5b6009609b83600a8110614402576144016155be565b5b01541461440e57600080fd5b33600a83600a8110614423576144226155be565b5b0160006101000a81548173ffffffffffffffffffffffffffffffffffffffff021916908373ffffffffffffffffffffffffffffffffffffffff160217905550600a609b83600a8110614478576144776155be565b5b01819055507fdc779d7e856995ce3047ce9dfcaeb3f9915645cbd8a8824a118bb661f02c9f8e82609b84600a81106144b3576144b26155be565b5b0154336040516144c5939291906158da565b60405180910390a160019050919050565b600080600090505b600a8110156145df576000609b82600a81106144fd576144fc6155be565b5b0154036145cc5733600082600a8110614519576145186155be565b5b0160006101000a81548173ffffffffffffffffffffffffffffffffffffffff021916908373ffffffffffffffffffffffffffffffffffffffff1602179055506009609b82600a811061456e5761456d6155be565b5b01819055507fdc779d7e856995ce3047ce9dfcaeb3f9915645cbd8a8824a118bb661f02c9f8e81609b83600a81106145a9576145a86155be565b5b0154336040516145bb939291906158da565b60405180910390a1809150506145e5565b80806145d79061583f565b9150506144de565b600a9150505b90565b60af5481565b6000600a82106145fd57600080fd5b6040831061460a57600080fd5b60018414806146195750600284145b61462257600080fd5b600060018503614635576002905061463a565b600190505b600060ff1660328560018461464f919061561c565b604061465b9190615650565b866040600261466a9190615650565b6146749190615650565b61467e91906156aa565b61468891906156aa565b610500811061469a576146996155be565b5b601091828204019190066002029054906101000a900461ffff1661ffff16146146c257600080fd5b600083600a81106146d6576146d56155be565b5b0160009054906101000a900473ffffffffffffffffffffffffffffffffffffffff1673ffffffffffffffffffffffffffffffffffffffff163373ffffffffffffffffffffffffffffffffffffffff1614801561474757506007609b84600a8110614743576147426155be565b5b0154145b806147d35750600a83600a8110614761576147606155be565b5b0160009054906101000a900473ffffffffffffffffffffffffffffffffffffffff1673ffffffffffffffffffffffffffffffffffffffff163373ffffffffffffffffffffffffffffffffffffffff161480156147d257506001609b84600a81106147ce576147cd6155be565b5b0154145b5b6147dc57600080fd5b600460ff166032856001846147f1919061561c565b60406147fd9190615650565b866040600261480c9190615650565b6148169190615650565b61482091906156aa565b61482a91906156aa565b610500811061483c5761483b6155be565b5b601091828204019190066002026101000a81548161ffff021916908361ffff16021790555060018503614889576006609b84600a811061487f5761487e6155be565b5b01819055506148a5565b6005609b84600a811061489f5761489e6155be565b5b01819055505b600060a584600a81106148bb576148ba6155be565b5b01819055507fe81c31a54ac19ab861d4239cfaf842c36dd287ff53228f0a04fdbac4ade939eb8585856040516148f39392919061571a565b60405180910390a160019150509392505050565b600081600a811061491757600080fd5b016000915054906101000a900473ffffffffffffffffffffffffffffffffffffffff1681565b6086816014811061494d57600080fd5b60209182820401919006915054906101000a900460ff1681565b6000600a831061497657600080fd5b60018203614c3f57600083600a8110614992576149916155be565b5b0160009054906101000a900473ffffffffffffffffffffffffffffffffffffffff1673ffffffffffffffffffffffffffffffffffffffff163373ffffffffffffffffffffffffffffffffffffffff16146149eb57600080fd5b6001609b84600a8110614a0157614a006155be565b5b01541480614a2457506010609b84600a8110614a2057614a1f6155be565b5b0154145b80614a445750600d609b84600a8110614a4057614a3f6155be565b5b0154145b80614a6457506006609b84600a8110614a6057614a5f6155be565b5b0154145b80614a8457506003609b84600a8110614a8057614a7f6155be565b5b0154145b614a8d57600080fd5b600060a584600a8110614aa357614aa26155be565b5b015403614b05574360a584600a8110614abf57614abe6155be565b5b01819055507f3a60f1751add4cd0281105767f26d12f249c6e53eb5ba2f3bc456ffdb9ca587a8383604051614af59291906153a8565b60405180910390a1439050614f01565b600260a584600a8110614b1b57614b1a6155be565b5b0154614b2791906156aa565b4310614c3757600d609b84600a8110614b4357614b426155be565b5b015403614b725760006087600185614b5b91906156aa565b60148110614b6c57614b6b6155be565b5b01819055505b6004609b84600a8110614b8857614b876155be565b5b0181905550600060a584600a8110614ba357614ba26155be565b5b018190555033601484600a8110614bbd57614bbc6155be565b5b0160006101000a81548173ffffffffffffffffffffffffffffffffffffffff021916908373ffffffffffffffffffffffffffffffffffffffff1602179055507f4390b36196c6492dbb7eb351e8459693cfdb32928ba117dda2bfd6f520b2c3a1600184604051614c2e9291906159af565b60405180910390a15b439050614f01565b60028203614efc57600a83600a8110614c5b57614c5a6155be565b5b0160009054906101000a900473ffffffffffffffffffffffffffffffffffffffff1673ffffffffffffffffffffffffffffffffffffffff163373ffffffffffffffffffffffffffffffffffffffff1614614cb457600080fd5b6007609b84600a8110614cca57614cc96155be565b5b01541480614ced5750600f609b84600a8110614ce957614ce86155be565b5b0154145b80614d0d5750600c609b84600a8110614d0957614d086155be565b5b0154145b80614d2d57506005609b84600a8110614d2957614d286155be565b5b0154145b80614d4d57506002609b84600a8110614d4957614d486155be565b5b0154145b614d5657600080fd5b600060a584600a8110614d6c57614d6b6155be565b5b015403614dce574360a584600a8110614d8857614d876155be565b5b01819055507f3a60f1751add4cd0281105767f26d12f249c6e53eb5ba2f3bc456ffdb9ca587a8383604051614dbe9291906153a8565b60405180910390a1439050614f01565b600260a584600a8110614de457614de36155be565b5b0154614df091906156aa565b4310614ef457600c609b84600a8110614e0c57614e0b6155be565b5b015403614e2f57600060878460148110614e2957614e286155be565b5b01819055505b6004609b84600a8110614e4557614e446155be565b5b0181905550600060a584600a8110614e6057614e5f6155be565b5b018190555033601484600a8110614e7a57614e796155be565b5b0160006101000a81548173ffffffffffffffffffffffffffffffffffffffff021916908373ffffffffffffffffffffffffffffffffffffffff1602179055507f4390b36196c6492dbb7eb351e8459693cfdb32928ba117dda2bfd6f520b2c3a1600284604051614eeb9291906159d8565b60405180910390a15b439050614f01565b600090505b92915050565b60828160148110614f1757600080fd5b60209182820401919006915054906101000a900460ff1681565b601e81600a8110614f4157600080fd5b016000915090505481565b60008183614f5a91906156aa565b905092915050565b600082614f6f8584614f79565b1490509392505050565b60008082905060005b8451811015614fc457614faf82868381518110614fa257614fa16155be565b5b6020026020010151614fcf565b91508080614fbc9061583f565b915050614f82565b508091505092915050565b6000818310614fe757614fe28284614ffa565b614ff2565b614ff18383614ffa565b5b905092915050565b600082600052816020526040600020905092915050565b600080fd5b600080fd5b6000819050919050565b61502e8161501b565b811461503957600080fd5b50565b60008135905061504b81615025565b92915050565b60006020828403121561506757615066615011565b5b60006150758482850161503c565b91505092915050565b60008115159050919050565b6150938161507e565b82525050565b60006020820190506150ae600083018461508a565b92915050565b600073ffffffffffffffffffffffffffffffffffffffff82169050919050565b60006150df826150b4565b9050919050565b6150ef816150d4565b82525050565b600060208201905061510a60008301846150e6565b92915050565b600080fd5b600080fd5b600080fd5b60008083601f84011261513557615134615110565b5b8235905067ffffffffffffffff81111561515257615151615115565b5b60208301915083602082028301111561516e5761516d61511a565b5b9250929050565b600060ff82169050919050565b61518b81615175565b811461519657600080fd5b50565b6000813590506151a881615182565b92915050565b60008060008060008060a087890312156151cb576151ca615011565b5b600087013567ffffffffffffffff8111156151e9576151e8615016565b5b6151f589828a0161511f565b9650965050602061520889828a01615199565b945050604061521989828a0161503c565b935050606061522a89828a0161503c565b925050608061523b89828a0161503c565b9150509295509295509295565b600061ffff82169050919050565b61525f81615248565b82525050565b600060208201905061527a6000830184615256565b92915050565b6152898161501b565b82525050565b60006020820190506152a46000830184615280565b92915050565b60006152b5826150b4565b9050919050565b6152c5816152aa565b82525050565b60006020820190506152e060008301846152bc565b92915050565b60008060008060008060008060e0898b03121561530657615305615011565b5b600089013567ffffffffffffffff81111561532457615323615016565b5b6153308b828c0161511f565b985098505060206153438b828c01615199565b96505060406153548b828c0161503c565b95505060606153658b828c0161503c565b94505060806153768b828c0161503c565b93505060a06153878b828c0161503c565b92505060c06153988b828c0161503c565b9150509295985092959890939650565b60006040820190506153bd6000830185615280565b6153ca6020830184615280565b9392505050565b6000819050919050565b6153e4816153d1565b81146153ef57600080fd5b50565b600081359050615401816153db565b92915050565b6000806000606084860312156154205761541f615011565b5b600061542e8682870161503c565b935050602061543f8682870161503c565b9250506040615450868287016153f2565b9150509250925092565b6000806040838503121561547157615470615011565b5b600061547f8582860161503c565b92505060206154908582860161503c565b9150509250929050565b6154a381615248565b81146154ae57600080fd5b50565b6000813590506154c08161549a565b92915050565b600080600080600060a086880312156154e2576154e1615011565b5b60006154f08882890161503c565b95505060206155018882890161503c565b9450506040615512888289016154b1565b9350506060615523888289016154b1565b92505060806155348882890161503c565b9150509295509295909350565b61554a816153d1565b82525050565b60006020820190506155656000830184615541565b92915050565b60008060006060848603121561558457615583615011565b5b60006155928682870161503c565b93505060206155a38682870161503c565b92505060406155b48682870161503c565b9150509250925092565b7f4e487b7100000000000000000000000000000000000000000000000000000000600052603260045260246000fd5b7f4e487b7100000000000000000000000000000000000000000000000000000000600052601160045260246000fd5b60006156278261501b565b91506156328361501b565b925082820390508181111561564a576156496155ed565b5b92915050565b600061565b8261501b565b91506156668361501b565b9250817fffffffffffffffffffffffffffffffffffffffffffffffffffffffffffffffff048311821515161561569f5761569e6155ed565b5b828202905092915050565b60006156b58261501b565b91506156c08361501b565b92508282019050808211156156d8576156d76155ed565b5b92915050565b6000819050919050565b6156f96156f48261501b565b6156de565b82525050565b600061570b82846156e8565b60208201915081905092915050565b600060608201905061572f6000830186615280565b61573c6020830185615280565b6157496040830184615280565b949350505050565b6000819050919050565b6000819050919050565b600061578061577b61577684615751565b61575b565b61501b565b9050919050565b61579081615765565b82525050565b60006060820190506157ab6000830186615787565b6157b86020830185615280565b6157c56040830184615280565b949350505050565b6000819050919050565b60006157f26157ed6157e8846157cd565b61575b565b61501b565b9050919050565b615802816157d7565b82525050565b600060608201905061581d60008301866157f9565b61582a6020830185615280565b6158376040830184615280565b949350505050565b600061584a8261501b565b91507fffffffffffffffffffffffffffffffffffffffffffffffffffffffffffffffff820361587c5761587b6155ed565b5b600182019050919050565b600060a08201905061589c6000830188615280565b6158a96020830187615280565b6158b66040830186615280565b6158c36060830185615280565b6158d06080830184615280565b9695505050505050565b60006060820190506158ef6000830186615280565b6158fc6020830185615280565b61590960408301846152bc565b949350505050565b600061591c82615248565b915061592783615248565b9250828203905061ffff811115615941576159406155ed565b5b92915050565b600061596261595d61595884615248565b61575b565b61501b565b9050919050565b61597281615947565b82525050565b600060608201905061598d6000830186615280565b61599a6020830185615969565b6159a76040830184615280565b949350505050565b60006040820190506159c460008301856157f9565b6159d16020830184615280565b9392505050565b60006040820190506159ed6000830185615787565b6159fa6020830184615280565b939250505056fea2646970667358221220550e2faaa2a2ba7b9c07fd779077d5c541ad690dc1f0a7b5f108fb282302c1fe64736f6c63430008100033",
  "immutableReferences": {},
  "source": "// SPDX-License-Identifier: MIT\npragma solidity ^0.8.0;\n\nimport \"@openzeppelin/contracts/utils/cryptography/MerkleProof.sol\";\nimport \"@openzeppelin/contracts/utils/math/SafeMath.sol\";\n\n/* ************************* HIT AND SUNK CONTRACT *************************** */\n\ncontract HitAndSunk\n{\n    using SafeMath for uint8;\n    using SafeMath for uint256;\n\n    uint constant num_games = 10;\n    uint constant num_cells = 64;\n    uint constant dim_row = 8;\n    \n    /* **************** POSSIBLE STATE VALUE ****************** */\n    uint constant available = 0;\n    uint constant player1_turn = 7;\n    uint constant player2_turn = 1;\n    \n    uint constant verification_player1_win= 2;\n    uint constant verification_player2_win = 3;\n    \n    uint constant match_over = 4;\n    uint constant wait_player1_outcome = 5;\n    uint constant wait_player2_outcome = 6;\n    \n    \n    uint constant wait_for_player = 8;\n    uint constant wait_for_friend = 9;\n    \n    uint constant decide_reward = 10;\n    \n    uint constant wait_both_transactions = 11;\n    uint constant wait_player1_transaction = 12;\n    uint constant wait_player2_transaction = 13;\n    \n    uint constant wait_both_dispositions = 14;\n    uint constant wait_player1_disposition = 15;\n    uint constant wait_player2_disposition = 16;\n    \n    uint constant match_payed = 17;\n    \n    /* ****************** POSSIBLE CELL VALUE ****************** */\n    \n    uint8 constant not_asked = 0;\n    uint8 constant water = 1;\n    uint8 constant hit = 2;\n    uint8 constant sunk = 3;\n    uint8 constant asked = 4;\n    uint8 constant ship = 6;\n    \n    // Marked cells during the verification process\n    uint8 constant proven_asked = 5;\n    uint8 constant proven_not_asked = 6; \n\n    uint8 constant proven_marked = 7;\n    \n    /* ****************** DIRECTION TRANSLATION ****************** */\n    \n    uint16 constant N = 0;\n    uint16 constant S = 1;\n    uint16 constant W = 2;\n    uint16 constant E = 3;\n\n    /* **************** MAX INACTIVITY TIME CONSTANT ***************** */\n    uint constant inactivity_time_limit = 2; //In blocks\n    \n\n\n    address [num_games] public player1;\n    address [num_games] public player2;\n    address payable [num_games] public winner;\n\n    bytes32[num_games] public merkle_root1;\n    bytes32[num_games] public merkle_root2;\n\n    uint16[2*num_cells*num_games] public game_matrix;\n\n    /**************** SCORE VARIABLE ******************/\n    // Here we save whether or not the player has sunk the ships of different dimension\n\n    bool[2*num_games] public sunk_1;\n    bool[2*num_games] public sunk_2;\n    bool[2*num_games] public sunk_3;\n    bool[2*num_games] public sunk_4;\n    bool[2*num_games] public sunk_5;\n\n\n    uint[num_games*2] public reward;\n    uint[num_games] public state;\n    uint[num_games] public last_inactivity_request;\n    uint public balance = 0;\n \n\n    event newGameInfo(uint game_ID, uint state_ID, address player);\n    event changeReward(uint player, uint new_reward, uint gaID);\n    event amountToPay(uint amount, uint gaID);\n    event changeState(uint new_state, uint gaID);\n    event matchWinner(uint winner_player, uint gaID);\n    event hitTried(uint player, uint cell, uint gaID);\n    event gotWater(uint player, uint cell, uint gaID);\n    event hitShip(uint player, uint cell, uint gaID);\n    event sunkShip(uint player, uint cell, uint direction, uint dimension, uint gaID);\n    event cellVerified(uint player, uint cell, uint gaID);\n    event sunkVerified(uint player, uint number_sunk, uint gaID);\n    event abandonment_request(uint gaID, uint player);\n\n\n    function new_game() public returns (uint game_ID, uint state_ID)\n    {\n        uint i;\n\n        for (i = 0; i < num_games; i++)\n        {\n            if (state[i] == available)\n            {\n                player1[i] = msg.sender;\n                state[i] = wait_for_player;\n                emit newGameInfo(i, state[i], msg.sender);\n                return (i, state[i]);\n            }\n            else if (state[i] == wait_for_player && player1[i] != msg.sender)\n            {\n                player2[i] = msg.sender;\n                state[i] = decide_reward;\n                emit newGameInfo(i, state[i], msg.sender);\n                return (i, state[i]);\n            }\n        }\n        return (num_games, 0);\n    }\n\n\n    function new_game_with_friend() public returns (uint game_ID)\n    {\n        uint i;\n        /*\n        for (i = 0; i < num_games; i++)\n        {\n            if ((player1[num_games] == msg.sender || player2[i] == msg.sender) && state[i] != match_over) return (num_games, 0); \n        }*/\n        for (i = 0; i < num_games; i++)\n        {\n            if (state[i] == available)\n            {\n                player1[i] = msg.sender;\n                state[i] = wait_for_friend;\n                emit newGameInfo(i, state[i], msg.sender);\n                return i;\n            }\n        }\n        return num_games;\n    }\n\n\n    function join_friend(uint game_ID) public returns (bool result)\n    {\n        require (game_ID < num_games);\n        require (state[game_ID] == wait_for_friend);\n        player2[game_ID] = msg.sender;\n        state[game_ID] = decide_reward;\n        emit newGameInfo(game_ID, state[game_ID], msg.sender);\n        return true;\n    }\n\n\n    function set_reward(uint reward_value, uint player, uint game_ID) public returns (bool result)\n    {\n        require ((player == 1 || player == 2) && game_ID < num_games && reward_value != 0 && state[game_ID] == decide_reward);\n        \n        if (player == 1)\n        {\n            if (msg.sender == player1[game_ID])\n            {\n                reward[game_ID*2] = reward_value;\n                if (reward[game_ID*2] == reward[game_ID*2 + 1])\n                {\n                    state[game_ID] = wait_both_transactions;\n                    last_inactivity_request[game_ID] = 0;\n                    emit amountToPay(reward_value, game_ID);\n                }\n                else emit changeReward(1, reward_value, game_ID);\n                return true;\n            }\n        }\n        else if (player == 2)\n        {\n            if (msg.sender == player2[game_ID])\n            {\n                reward[game_ID*2+1] = reward_value;\n                if (reward[game_ID*2] == reward[game_ID*2 + 1])\n                {\n                    state[game_ID] = wait_both_transactions;\n                    last_inactivity_request[game_ID] = 0;\n                    emit amountToPay(reward_value, game_ID);\n                }\n                else emit changeReward(2, reward_value, game_ID);\n                return true;\n            }\n        }\n        return false;   \n    } \n\n\n    function send_transaction(uint player, uint game_ID) public payable returns (bool result)\n    {\n        require (game_ID < num_games);\n        require (player == 1 || player == 2);\n        require (msg.value == reward[game_ID]*1e18);\n\n        if (player == 1)\n        {\n            if (state[game_ID] == wait_both_transactions) state[game_ID] = wait_player2_transaction;\n            else if (state[game_ID] == wait_player1_transaction) state[game_ID] = wait_both_dispositions; //go to decide the disposition\n            last_inactivity_request[game_ID] = 0;\n\n            emit changeState(state[game_ID], game_ID);\n        }\n\n        if (player == 2)\n        {\n            if (state[game_ID] == wait_both_transactions) state[game_ID] = wait_player1_transaction; //wait for player1 to pay\n            else if (state[game_ID] == wait_player2_transaction) state[game_ID] = wait_both_dispositions; //go to decide the disposition\n            last_inactivity_request[game_ID] = 0;\n\n            emit changeState(state[game_ID], game_ID);\n        }\n        balance += msg.value;\n        return true;\n    }\n\n\n    function commit_disposition(uint player, uint game_ID, bytes32 merkle_root) public returns (bool result)\n    {\n        require (game_ID < num_games);\n        require ((player == 1 && (state[game_ID] == wait_both_dispositions || state[game_ID] == wait_player1_disposition) && msg.sender == player1[game_ID]) ||\n                 (player == 2 && (state[game_ID] == wait_both_dispositions || state[game_ID] == wait_player2_disposition) && msg.sender == player2[game_ID])); //state should be wait_both_disposition, wait_player1 or wait_player2\n        \n        if (player == 1)\n        {\n            if (state[game_ID] == wait_both_dispositions) state[game_ID] = wait_player2_disposition;\n            else if (state[game_ID] == wait_player1_disposition) state[game_ID] = player1_turn;\n            last_inactivity_request[game_ID] = 0;\n\n            merkle_root1[game_ID] = merkle_root; \n            emit changeState(state[game_ID], game_ID);\n        }\n\n        if (player == 2)\n        {\n            if (state[game_ID] == wait_both_dispositions) state[game_ID] = wait_player1_disposition;\n            else if (state[game_ID] == wait_player2_disposition) state[game_ID] = player1_turn;\n            last_inactivity_request[game_ID] = 0;\n\n            merkle_root2[game_ID] = merkle_root;\n            emit changeState(state[game_ID], game_ID);\n        }\n        return true;\n    }\n\n    function try_hit(uint player, uint cell, uint game_ID) public returns (bool result)\n    {\n        require (game_ID < num_games);\n        require (cell < num_cells);\n        require (player == 1 || player == 2);\n\n        uint ground_player = 0;\n        if (player == 1) ground_player = 2;\n        else             ground_player = 1;\n        require (game_matrix[2*num_cells*game_ID + num_cells*(ground_player-1) + cell] == not_asked);\n        require ((msg.sender == player1[game_ID] && state[game_ID] == player1_turn)||\n                 (msg.sender == player2[game_ID] && state[game_ID] == player2_turn));        \n        \n        game_matrix[2*num_cells*game_ID + num_cells*(ground_player-1) + cell] = asked;\n        if (player == 1) state[game_ID] = wait_player2_outcome;\n        else state[game_ID] = wait_player1_outcome;\n        last_inactivity_request[game_ID] = 0;\n\n        emit hitTried(player, cell, game_ID);\n        return true;\n    }\n\n\n    function outcome_water(bytes32[] calldata proof, uint8 seed, uint player, uint cell, uint game_ID) public returns (bool result)\n    {\n        require (game_ID < num_games);\n        require (cell < num_cells);\n        require ((player == 1 && msg.sender == player1[game_ID] && state[game_ID] == wait_player1_outcome) ||\n                 (player == 2 && msg.sender == player2[game_ID] && state[game_ID] == wait_player2_outcome));\n        require (game_matrix[2*game_ID*num_cells + num_cells*(player-1) + cell] == asked);\n        /*\n            Part to verify the proof\n        */\n        bytes32 merkleLeaf = keccak256(abi.encodePacked(water.add(seed)));\n        if (player == 1) require (MerkleProof.verify(proof, merkle_root1[game_ID], merkleLeaf));\n        else             require (MerkleProof.verify(proof, merkle_root2[game_ID], merkleLeaf));\n\n        game_matrix[2*game_ID*num_cells + (player-1)*num_cells + cell] = water;\n        if (player == 2) state[game_ID] = player2_turn;\n        else if (player == 1) state[game_ID] = player1_turn;\n        last_inactivity_request[game_ID] = 0;\n\n        emit gotWater(player, cell, game_ID);\n        return true;\n    }\n\n\n    function outcome_hit(bytes32[] calldata proof, uint8 seed, uint player, uint cell, uint game_ID) public returns (bool result)\n    {\n        require (game_ID < num_games);\n        require (cell < num_cells);\n        require ((player == 1 && state[game_ID] == wait_player1_outcome && player1[game_ID] == msg.sender) ||\n                 (player == 2 && state[game_ID] == wait_player2_outcome && player2[game_ID] == msg.sender));\n        require (game_matrix[2*game_ID*num_cells + num_cells*(player-1) + cell] == asked);\n        \n        /*\n            Part to verify the proof\n        */\n        bytes32 merkleLeaf = keccak256(abi.encodePacked(ship.add(seed)));\n        if (player == 1) require (MerkleProof.verify(proof, merkle_root1[game_ID], merkleLeaf));\n        else             require (MerkleProof.verify(proof, merkle_root2[game_ID], merkleLeaf));\n\n        game_matrix[2*game_ID*num_cells + num_cells*(player-1) + cell] = hit;\n        if (player == 1)\n        {\n            state[game_ID] = player1_turn;\n            emit hitShip(2, cell, game_ID);\n        }\n        else\n        {\n            state[game_ID] = player2_turn;\n            emit hitShip(1, cell, game_ID);\n        }\n        last_inactivity_request[game_ID] = 0;\n        return true;\n    }\n\n\n    function outcome_sunk(bytes32[] calldata proof, uint8 seed, uint player, uint cell, uint dimension, uint direction, uint game_ID) public returns(bool result)\n    {\n        require (game_ID < num_games);\n        require (cell < num_cells);\n        require (dimension <= 5 && dimension != 0);\n        require (direction == E || direction == S);\n\n        if (direction == S) require (cell + (dimension-1)*dim_row < num_cells);\n        else\n        {\n            uint divisor1 = 0;\n            uint divisor2 = 0;\n            while (divisor1*dim_row <= cell)             divisor1++;\n            while (divisor2*dim_row <= cell+dimension-1) divisor2++;\n            require (divisor1 == divisor2);\n        }\n\n        require ((player == 1 && msg.sender == player1[game_ID] && state[game_ID] == wait_player1_outcome) ||\n                 (player == 2 && msg.sender == player2[game_ID] && state[game_ID] == wait_player2_outcome));\n\n        if (dimension == 1) require (sunk_1[game_ID*2 + player-1] == false);\n        if (dimension == 2) require (sunk_2[game_ID*2 + player-1] == false);\n        if (dimension == 3) require (sunk_3[game_ID*2 + player-1] == false);\n        if (dimension == 4) require (sunk_4[game_ID*2 + player-1] == false);\n        if (dimension == 5) require (sunk_5[game_ID*2 + player-1] == false);\n\n        //VERIFY THE MERKLE PROOF\n        bytes32 merkleLeaf =  keccak256(abi.encodePacked(ship.add(seed)));\n        if (player == 1) require (MerkleProof.verify(proof, merkle_root1[game_ID], merkleLeaf));\n        else             require (MerkleProof.verify(proof, merkle_root2[game_ID], merkleLeaf));\n        \n        \n        uint i = 0;\n        uint num_asked = 0;\n        uint num_hit = 0;\n        if (direction == E)\n        {\n            for (i = 0; i < dimension; i++)\n            {\n                if      (game_matrix[2*game_ID*num_cells + num_cells*(player-1) + cell+i] == asked) num_asked++;\n                else if (game_matrix[2*game_ID*num_cells + num_cells*(player-1) + cell+i] == hit) num_hit++;\n            }\n        }\n        else if (direction == S)\n        {\n            for (i = 0; i < dimension; i++)\n            {\n                if      (game_matrix[2*game_ID*num_cells + num_cells*(player-1) + cell + i*dim_row] == asked) num_asked++;\n                else if (game_matrix[2*game_ID*num_cells + num_cells*(player-1) + cell + i*dim_row] == hit) num_hit++;\n            }\n        }\n        //require (num_asked == 1 && num_hit + num_asked == dimension);\n\n        if (direction == E)\n        {\n            for (i = 0; i < dimension; i++)\n            {\n                game_matrix[2*game_ID*num_cells + num_cells*(player-1) + cell + i] = sunk;\n            }\n        }\n        else if (direction == S)\n        {\n            for (i = 0; i < dimension; i++)\n            {\n                game_matrix[2*game_ID*num_cells + num_cells*(player-1) + cell + i*dim_row] = sunk;\n            }\n        }\n    \n        if      (dimension == 1) sunk_1[game_ID*2 + player-1] = true;\n        else if (dimension == 2) sunk_2[game_ID*2 + player-1] = true;\n        else if (dimension == 3) sunk_3[game_ID*2 + player-1] = true;\n        else if (dimension == 4) sunk_4[game_ID*2 + player-1] = true;\n        else if (dimension == 5) sunk_5[game_ID*2 + player-1] = true;\n        else return false;\n        \n        if (sunk_1[game_ID*2 + player-1] == true &&\n            sunk_2[game_ID*2 + player-1] == true &&\n            sunk_3[game_ID*2 + player-1] == true &&\n            sunk_4[game_ID*2 + player-1] == true &&\n            sunk_5[game_ID*2 + player-1] == true)\n        {\n            if (player == 1) state[game_ID] = verification_player2_win;\n            else             state[game_ID] = verification_player1_win;\n            last_inactivity_request[game_ID] = 0;\n            \n            emit changeState(state[game_ID], game_ID);\n            return true;\n        }\n        else\n        {\n            if (player == 1) state[game_ID] = player1_turn;\n            else             state[game_ID] = player2_turn;\n            last_inactivity_request[game_ID] = 0;\n\n            emit sunkShip(player, cell, direction, dimension, game_ID);\n            return true;\n        }\n    }\n\n    function adversary_quit(uint game_ID, uint player) public returns (uint result)\n    {\n        require (game_ID < num_games);\n        if (player == 1) \n        {\n            require (msg.sender == player1[game_ID]);\n            require (state[game_ID] == player2_turn || state[game_ID] == wait_player2_disposition || \n                     state[game_ID] == wait_player2_transaction || state[game_ID] == wait_player2_outcome ||\n                     state[game_ID] == verification_player2_win);\n\n            if (last_inactivity_request[game_ID] == 0)\n            {\n                last_inactivity_request[game_ID] = block.number;\n                emit abandonment_request(game_ID, player);\n                return block.number;\n            }\n            else\n            {\n                if (block.number >= last_inactivity_request[game_ID] + inactivity_time_limit)\n                {\n                    if (state[game_ID] == wait_player2_transaction) reward[game_ID+1] = 0;\n                    state[game_ID] = match_over;\n                    last_inactivity_request[game_ID] = 0;\n\n                    winner[game_ID] = payable(msg.sender);\n                    emit matchWinner(1, game_ID);\n                }\n                return block.number;\n            }\n        }\n        else if (player == 2) \n        {\n            require (msg.sender == player2[game_ID]);\n            require (state[game_ID] == player1_turn || state[game_ID] == wait_player1_disposition || \n                     state[game_ID] == wait_player1_transaction || state[game_ID] == wait_player1_outcome ||\n                     state[game_ID] == verification_player1_win);\n            \n            if (last_inactivity_request[game_ID] == 0)\n            {\n                last_inactivity_request[game_ID] = block.number;\n                emit abandonment_request(game_ID, player);\n                return block.number;\n            }\n            else\n            {\n                if (block.number >= last_inactivity_request[game_ID] + inactivity_time_limit)\n                {\n                    if (state[game_ID] == wait_player1_transaction) reward[game_ID] = 0;\n                    state[game_ID] = match_over;\n                    last_inactivity_request[game_ID] = 0;\n\n                    winner[game_ID] = payable(msg.sender);\n                    emit matchWinner(2, game_ID);\n                }\n                return block.number;\n            }\n        }\n        else return 0;\n    }\n\n\n    function verify_cell(bytes32[] calldata proof, uint8 seed, uint player, uint cell, uint game_ID) public returns(bool result)\n    {\n        require (game_ID < num_games);\n        require (cell < num_cells);\n        require ((player == 1 && state[game_ID] == verification_player1_win && msg.sender == player1[game_ID]) ||\n                 (player == 2 && state[game_ID] == verification_player2_win && msg.sender == player2[game_ID]));\n\n        require (game_matrix[2*game_ID*num_cells + num_cells*(player-1) + cell] == hit ||\n                 game_matrix[2*game_ID*num_cells + num_cells*(player-1) + cell] == not_asked);\n        /*\n            VERIFY THE CORRECTNESS OF THE CELL\n        */\n        bytes32 merkleLeaf = keccak256(abi.encodePacked(ship.add(seed)));\n        if (player == 1) require (MerkleProof.verify(proof, merkle_root1[game_ID], merkleLeaf));\n        else             require (MerkleProof.verify(proof, merkle_root2[game_ID], merkleLeaf));\n        \n        if  (game_matrix[2*game_ID*num_cells + num_cells*(player-1) + cell] == not_asked) game_matrix[2*game_ID*num_cells + num_cells*(player-1) + cell] = proven_not_asked;\n        else game_matrix[2*game_ID*num_cells + num_cells*(player-1) + cell] = proven_asked;\n        emit cellVerified(player, cell, game_ID);\n        return true;\n    }\n\n\n    function verify_sunk(uint player, uint starting_cell, uint16 direction, uint16 dimension, uint game_ID) public returns(bool result)\n    {\n        require (game_ID < num_games);\n        require (direction == S || direction == E);\n        require (dimension <= 5 && dimension != 0);\n        require (state[game_ID] == verification_player1_win && msg.sender == player1[game_ID] ||\n                 state[game_ID] == verification_player2_win && msg.sender == player2[game_ID]);\n        \n        if (dimension == 1) require (sunk_1[game_ID*2 + player-1] == false);\n        if (dimension == 2) require (sunk_2[game_ID*2 + player-1] == false);\n        if (dimension == 3) require (sunk_3[game_ID*2 + player-1] == false);\n        if (dimension == 4) require (sunk_4[game_ID*2 + player-1] == false);\n        if (dimension == 5) require (sunk_5[game_ID*2 + player-1] == false);\n        \n        if (direction == S)\n        {\n            uint num_not_asked = 0;\n            require (starting_cell + (dimension-1)*dim_row < num_cells);\n            for (uint i = 0; i < dimension; i++)\n            {\n                require (game_matrix[2*game_ID*num_cells + num_cells*(player-1) + starting_cell + dim_row*i] == proven_asked || \n                         game_matrix[2*game_ID*num_cells + num_cells*(player-1) + starting_cell + dim_row*i] == proven_not_asked);\n                if (game_matrix[2*game_ID*num_cells + num_cells*(player-1) + starting_cell + dim_row*i] == proven_not_asked) num_not_asked++;\n            }\n            require (num_not_asked > 0);\n            for (uint i = 0; i < dimension; i++)\n            {\n                game_matrix[2*game_ID*num_cells + num_cells*(player-1) + starting_cell + dim_row*i] = proven_marked;\n            }\n        }\n        if (direction == E)\n        {\n            require (starting_cell + dimension-1 < num_cells);\n            \n            uint num_not_asked = 0;\n            uint divisor1 = 0;\n            uint divisor2 = 0;\n            while (divisor1*dim_row <= starting_cell)             divisor1++;\n            while (divisor2*dim_row <= starting_cell+dimension-1) divisor2++;\n            require (divisor1 == divisor2);\n\n            for (uint i = 0; i < dimension; i++)\n            {\n                require (game_matrix[2*game_ID*num_cells + num_cells*(player-1) + starting_cell + i] == proven_asked || \n                         game_matrix[2*game_ID*num_cells + num_cells*(player-1) + starting_cell + i] == proven_not_asked);\n                if (game_matrix[2*game_ID*num_cells + num_cells*(player-1) + starting_cell + i] == proven_not_asked) num_not_asked++;\n            }\n            require (num_not_asked > 0);\n            for (uint i = 0; i < dimension; i++)\n            {\n                game_matrix[2*game_ID*num_cells + num_cells*(player-1) + starting_cell + i] = proven_marked;\n            }\n        }\n        //CHECK THE SUNK\n        if      (dimension == 1) sunk_1[game_ID*2 + player-1] = true;\n        else if (dimension == 2) sunk_2[game_ID*2 + player-1] = true;\n        else if (dimension == 3) sunk_3[game_ID*2 + player-1] = true;\n        else if (dimension == 4) sunk_4[game_ID*2 + player-1] = true;\n        else if (dimension == 5) sunk_5[game_ID*2 + player-1] = true;\n        \n        if (sunk_1[game_ID*2 + player-1] && sunk_2[game_ID*2 + player-1] && sunk_3[game_ID*2 + player-1] && sunk_4[game_ID*2 + player-1] && sunk_5[game_ID*2 + player-1])\n        {\n            winner[game_ID] = payable(msg.sender);\n            state[game_ID] = match_over;\n            last_inactivity_request[game_ID] = 0;\n\n            emit matchWinner(player, game_ID);\n            return true;\n        }\n        else emit sunkVerified(player, dimension, game_ID);\n        return true;\n    }\n\n    function updateState(uint new_state, uint game_ID) private\n    {\n        require (game_ID < 0 || game_ID >= num_games);\n        state[game_ID] = new_state;\n        last_inactivity_request[game_ID] = 0;\n    }\n\n    function withdraw_reward(uint game_ID, uint amount) public returns (bool result)\n    {\n        require (state[game_ID] == match_over && payable(msg.sender) == winner[game_ID]);\n        require (amount == reward[game_ID]+reward[game_ID+1]);\n        require (balance >= amount);\n\n        balance -= amount*1e18;\n        winner[game_ID].transfer(amount*1e18);\n        state[game_ID] = match_payed;\n        return true;\n    } \n}",
  "sourcePath": "/home/france/Cybersecurity-Ubuntu/blockchain/HitandSunk/Hit-and-Sunk-Ethereum-/prova_HitAndSunk/contract_deployment/contracts/HitAndSunk.sol",
  "compiler": {
    "name": "solc",
    "version": "0.8.16+commit.07a7930e.Emscripten.clang"
  },
  "schemaVersion": "3.4.13",
  "updatedAt": "2023-09-03T15:18:24.595Z",
  "networkType": "ethereum",
  "devdoc": {
    "kind": "dev",
    "methods": {},
    "version": 1
  },
  "userdoc": {
    "kind": "user",
    "methods": {},
    "version": 1
  }
}